{
  "address": "0xb4E6d982Bb76c02a510B2144e810470bd08616Bb",
  "abi": [
    {
      "inputs": [],
      "stateMutability": "nonpayable",
      "type": "constructor"
    },
    {
      "inputs": [
        {
          "internalType": "address",
          "name": "spender",
          "type": "address"
        },
        {
          "internalType": "uint256",
          "name": "allowance",
          "type": "uint256"
        },
        {
          "internalType": "uint256",
          "name": "needed",
          "type": "uint256"
        }
      ],
      "name": "ERC20InsufficientAllowance",
      "type": "error"
    },
    {
      "inputs": [
        {
          "internalType": "address",
          "name": "sender",
          "type": "address"
        },
        {
          "internalType": "uint256",
          "name": "balance",
          "type": "uint256"
        },
        {
          "internalType": "uint256",
          "name": "needed",
          "type": "uint256"
        }
      ],
      "name": "ERC20InsufficientBalance",
      "type": "error"
    },
    {
      "inputs": [
        {
          "internalType": "address",
          "name": "approver",
          "type": "address"
        }
      ],
      "name": "ERC20InvalidApprover",
      "type": "error"
    },
    {
      "inputs": [
        {
          "internalType": "address",
          "name": "receiver",
          "type": "address"
        }
      ],
      "name": "ERC20InvalidReceiver",
      "type": "error"
    },
    {
      "inputs": [
        {
          "internalType": "address",
          "name": "sender",
          "type": "address"
        }
      ],
      "name": "ERC20InvalidSender",
      "type": "error"
    },
    {
      "inputs": [
        {
          "internalType": "address",
          "name": "spender",
          "type": "address"
        }
      ],
      "name": "ERC20InvalidSpender",
      "type": "error"
    },
    {
      "anonymous": false,
      "inputs": [
        {
          "indexed": true,
          "internalType": "address",
          "name": "owner",
          "type": "address"
        },
        {
          "indexed": true,
          "internalType": "address",
          "name": "spender",
          "type": "address"
        },
        {
          "indexed": false,
          "internalType": "uint256",
          "name": "value",
          "type": "uint256"
        }
      ],
      "name": "Approval",
      "type": "event"
    },
    {
      "anonymous": false,
      "inputs": [
        {
          "indexed": true,
          "internalType": "address",
          "name": "provider",
          "type": "address"
        },
        {
          "indexed": true,
          "internalType": "address",
          "name": "tokenA",
          "type": "address"
        },
        {
          "indexed": true,
          "internalType": "address",
          "name": "tokenB",
          "type": "address"
        },
        {
          "indexed": false,
          "internalType": "uint256",
          "name": "amountA",
          "type": "uint256"
        },
        {
          "indexed": false,
          "internalType": "uint256",
          "name": "amountB",
          "type": "uint256"
        },
        {
          "indexed": false,
          "internalType": "uint256",
          "name": "liquidity",
          "type": "uint256"
        }
      ],
      "name": "LiquidityAdded",
      "type": "event"
    },
    {
      "anonymous": false,
      "inputs": [
        {
          "indexed": true,
          "internalType": "address",
          "name": "provider",
          "type": "address"
        },
        {
          "indexed": true,
          "internalType": "address",
          "name": "tokenA",
          "type": "address"
        },
        {
          "indexed": true,
          "internalType": "address",
          "name": "tokenB",
          "type": "address"
        },
        {
          "indexed": false,
          "internalType": "uint256",
          "name": "amountA",
          "type": "uint256"
        },
        {
          "indexed": false,
          "internalType": "uint256",
          "name": "amountB",
          "type": "uint256"
        },
        {
          "indexed": false,
          "internalType": "uint256",
          "name": "liquidity",
          "type": "uint256"
        }
      ],
      "name": "LiquidityRemoved",
      "type": "event"
    },
    {
      "anonymous": false,
      "inputs": [
        {
          "indexed": true,
          "internalType": "address",
          "name": "user",
          "type": "address"
        },
        {
          "indexed": false,
          "internalType": "address",
          "name": "tokenIn",
          "type": "address"
        },
        {
          "indexed": false,
          "internalType": "address",
          "name": "tokenOut",
          "type": "address"
        },
        {
          "indexed": false,
          "internalType": "uint256",
          "name": "amountIn",
          "type": "uint256"
        },
        {
          "indexed": false,
          "internalType": "uint256",
          "name": "amountOut",
          "type": "uint256"
        }
      ],
      "name": "SwapExecuted",
      "type": "event"
    },
    {
      "anonymous": false,
      "inputs": [
        {
          "indexed": true,
          "internalType": "address",
          "name": "from",
          "type": "address"
        },
        {
          "indexed": true,
          "internalType": "address",
          "name": "to",
          "type": "address"
        },
        {
          "indexed": false,
          "internalType": "uint256",
          "name": "value",
          "type": "uint256"
        }
      ],
      "name": "Transfer",
      "type": "event"
    },
    {
      "inputs": [
        {
          "internalType": "address",
          "name": "tokenA",
          "type": "address"
        },
        {
          "internalType": "address",
          "name": "tokenB",
          "type": "address"
        },
        {
          "internalType": "uint256",
          "name": "amountADesired",
          "type": "uint256"
        },
        {
          "internalType": "uint256",
          "name": "amountBDesired",
          "type": "uint256"
        },
        {
          "internalType": "uint256",
          "name": "amountAMin",
          "type": "uint256"
        },
        {
          "internalType": "uint256",
          "name": "amountBMin",
          "type": "uint256"
        },
        {
          "internalType": "address",
          "name": "to",
          "type": "address"
        },
        {
          "internalType": "uint256",
          "name": "deadline",
          "type": "uint256"
        }
      ],
      "name": "addLiquidity",
      "outputs": [
        {
          "internalType": "uint256",
          "name": "amountA",
          "type": "uint256"
        },
        {
          "internalType": "uint256",
          "name": "amountB",
          "type": "uint256"
        },
        {
          "internalType": "uint256",
          "name": "liquidity",
          "type": "uint256"
        }
      ],
      "stateMutability": "nonpayable",
      "type": "function"
    },
    {
      "inputs": [
        {
          "internalType": "address",
          "name": "owner",
          "type": "address"
        },
        {
          "internalType": "address",
          "name": "spender",
          "type": "address"
        }
      ],
      "name": "allowance",
      "outputs": [
        {
          "internalType": "uint256",
          "name": "",
          "type": "uint256"
        }
      ],
      "stateMutability": "view",
      "type": "function"
    },
    {
      "inputs": [
        {
          "internalType": "address",
          "name": "spender",
          "type": "address"
        },
        {
          "internalType": "uint256",
          "name": "value",
          "type": "uint256"
        }
      ],
      "name": "approve",
      "outputs": [
        {
          "internalType": "bool",
          "name": "",
          "type": "bool"
        }
      ],
      "stateMutability": "nonpayable",
      "type": "function"
    },
    {
      "inputs": [
        {
          "internalType": "address",
          "name": "account",
          "type": "address"
        }
      ],
      "name": "balanceOf",
      "outputs": [
        {
          "internalType": "uint256",
          "name": "",
          "type": "uint256"
        }
      ],
      "stateMutability": "view",
      "type": "function"
    },
    {
      "inputs": [],
      "name": "decimals",
      "outputs": [
        {
          "internalType": "uint8",
          "name": "",
          "type": "uint8"
        }
      ],
      "stateMutability": "view",
      "type": "function"
    },
    {
      "inputs": [
        {
          "internalType": "uint256",
          "name": "amountIn",
          "type": "uint256"
        },
        {
          "internalType": "uint256",
          "name": "reserveIn",
          "type": "uint256"
        },
        {
          "internalType": "uint256",
          "name": "reserveOut",
          "type": "uint256"
        }
      ],
      "name": "getAmountOut",
      "outputs": [
        {
          "internalType": "uint256",
          "name": "amountOut",
          "type": "uint256"
        }
      ],
      "stateMutability": "pure",
      "type": "function"
    },
    {
      "inputs": [
        {
          "internalType": "address",
          "name": "tokenA",
          "type": "address"
        },
        {
          "internalType": "address",
          "name": "tokenB",
          "type": "address"
        }
      ],
      "name": "getPrice",
      "outputs": [
        {
          "internalType": "uint256",
          "name": "price",
          "type": "uint256"
        }
      ],
      "stateMutability": "view",
      "type": "function"
    },
    {
      "inputs": [],
      "name": "name",
      "outputs": [
        {
          "internalType": "string",
          "name": "",
          "type": "string"
        }
      ],
      "stateMutability": "view",
      "type": "function"
    },
    {
      "inputs": [
        {
          "internalType": "address",
          "name": "tokenA",
          "type": "address"
        },
        {
          "internalType": "address",
          "name": "tokenB",
          "type": "address"
        },
        {
          "internalType": "uint256",
          "name": "liquidity",
          "type": "uint256"
        },
        {
          "internalType": "uint256",
          "name": "amountAMin",
          "type": "uint256"
        },
        {
          "internalType": "uint256",
          "name": "amountBMin",
          "type": "uint256"
        },
        {
          "internalType": "address",
          "name": "to",
          "type": "address"
        },
        {
          "internalType": "uint256",
          "name": "deadline",
          "type": "uint256"
        }
      ],
      "name": "removeLiquidity",
      "outputs": [
        {
          "internalType": "uint256",
          "name": "amountA",
          "type": "uint256"
        },
        {
          "internalType": "uint256",
          "name": "amountB",
          "type": "uint256"
        }
      ],
      "stateMutability": "nonpayable",
      "type": "function"
    },
    {
      "inputs": [
        {
          "internalType": "address",
          "name": "",
          "type": "address"
        },
        {
          "internalType": "address",
          "name": "",
          "type": "address"
        }
      ],
      "name": "reservesA",
      "outputs": [
        {
          "internalType": "uint256",
          "name": "",
          "type": "uint256"
        }
      ],
      "stateMutability": "view",
      "type": "function"
    },
    {
      "inputs": [
        {
          "internalType": "address",
          "name": "",
          "type": "address"
        },
        {
          "internalType": "address",
          "name": "",
          "type": "address"
        }
      ],
      "name": "reservesB",
      "outputs": [
        {
          "internalType": "uint256",
          "name": "",
          "type": "uint256"
        }
      ],
      "stateMutability": "view",
      "type": "function"
    },
    {
      "inputs": [
        {
          "internalType": "uint256",
          "name": "amountIn",
          "type": "uint256"
        },
        {
          "internalType": "uint256",
          "name": "amountOutMin",
          "type": "uint256"
        },
        {
          "internalType": "address[]",
          "name": "path",
          "type": "address[]"
        },
        {
          "internalType": "address",
          "name": "to",
          "type": "address"
        },
        {
          "internalType": "uint256",
          "name": "deadline",
          "type": "uint256"
        }
      ],
      "name": "swapExactTokensForTokens",
      "outputs": [],
      "stateMutability": "nonpayable",
      "type": "function"
    },
    {
      "inputs": [],
      "name": "symbol",
      "outputs": [
        {
          "internalType": "string",
          "name": "",
          "type": "string"
        }
      ],
      "stateMutability": "view",
      "type": "function"
    },
    {
      "inputs": [
        {
          "internalType": "address",
          "name": "",
          "type": "address"
        },
        {
          "internalType": "address",
          "name": "",
          "type": "address"
        }
      ],
      "name": "totalLiquidity",
      "outputs": [
        {
          "internalType": "uint256",
          "name": "",
          "type": "uint256"
        }
      ],
      "stateMutability": "view",
      "type": "function"
    },
    {
      "inputs": [],
      "name": "totalSupply",
      "outputs": [
        {
          "internalType": "uint256",
          "name": "",
          "type": "uint256"
        }
      ],
      "stateMutability": "view",
      "type": "function"
    },
    {
      "inputs": [
        {
          "internalType": "address",
          "name": "to",
          "type": "address"
        },
        {
          "internalType": "uint256",
          "name": "value",
          "type": "uint256"
        }
      ],
      "name": "transfer",
      "outputs": [
        {
          "internalType": "bool",
          "name": "",
          "type": "bool"
        }
      ],
      "stateMutability": "nonpayable",
      "type": "function"
    },
    {
      "inputs": [
        {
          "internalType": "address",
          "name": "from",
          "type": "address"
        },
        {
          "internalType": "address",
          "name": "to",
          "type": "address"
        },
        {
          "internalType": "uint256",
          "name": "value",
          "type": "uint256"
        }
      ],
      "name": "transferFrom",
      "outputs": [
        {
          "internalType": "bool",
          "name": "",
          "type": "bool"
        }
      ],
      "stateMutability": "nonpayable",
      "type": "function"
    },
    {
      "inputs": [
        {
          "internalType": "address",
          "name": "",
          "type": "address"
        },
        {
          "internalType": "address",
          "name": "",
          "type": "address"
        },
        {
          "internalType": "address",
          "name": "",
          "type": "address"
        }
      ],
      "name": "userLiquidity",
      "outputs": [
        {
          "internalType": "uint256",
          "name": "",
          "type": "uint256"
        }
      ],
      "stateMutability": "view",
      "type": "function"
    }
  ],
  "transactionHash": "0x9160b829fea2599447e2b368ef2e761b493a664ea0bb4aa339e60e3e982fcba3",
  "args": [],
  "numDeployments": 1,
  "solcInputHash": "e4b24fbd2b17cdd6d5197a2b7144e19b",
  "bytecode": "0x60806040523461033957604080519081016001600160401b03811182821017610244576040908152601882527f4c69717569646974792050726f766964657220546f6b656e0000000000000000602083015280519081016001600160401b0381118282101761024457604052600281526104c560f41b602082015281516001600160401b03811161024457600354600181811c9116801561032f575b602082101461022457601f81116102ca575b50602092601f8211600114610265579281929360009261025a575b50508160011b916000199060031b1c1916176003555b80516001600160401b03811161024457600454600181811c9116801561023a575b602082101461022457601f81116101bf575b50602091601f821160011461015b57918192600092610150575b50508160011b916000199060031b1c1916176004555b6040516118eb908161033f8239f35b01519050388061012b565b601f198216926004600052806000209160005b8581106101a75750836001951061018e575b505050811b01600455610141565b015160001960f88460031b161c19169055388080610180565b9192602060018192868501518155019401920161016e565b60046000527f8a35acfbc15ff81a39ae7d344fd709f28e8600b4aa8c65c6b64bfe7fe36bd19b601f830160051c8101916020841061021a575b601f0160051c01905b81811061020e5750610111565b60008155600101610201565b90915081906101f8565b634e487b7160e01b600052602260045260246000fd5b90607f16906100ff565b634e487b7160e01b600052604160045260246000fd5b0151905038806100c8565b601f198216936003600052806000209160005b8681106102b25750836001959610610299575b505050811b016003556100de565b015160001960f88460031b161c1916905538808061028b565b91926020600181928685015181550194019201610278565b60036000527fc2575a0e9e593c00f959f8c92f12db2869c3395a3b0502d05e2516446f71f85b601f830160051c81019160208410610325575b601f0160051c01905b81811061031957506100ad565b6000815560010161030c565b9091508190610303565b90607f169061009b565b600080fdfe6080604052600436101561001257600080fd5b60003560e01c806302de8a34146113ec578063054d50d4146113c857806306fdde0314611309578063095ea7b31461128357806318160ddd1461126557806323b872dd14611178578063313ce5671461115c57806331ad2b7e1461110b57806338ed173914610d9257806366c3062714610d2157806370a0823114610ce757806393a80f4114610c9657806395d89b4114610b92578063a9059cbb14610b61578063ac41865a14610a71578063baa2abde14610610578063dd62ed3e146105bf5763e8e33700146100e257600080fd5b346105ba576101003660031901126105ba576100fc61143d565b610104611453565b604435916064359160c4356001600160a01b0381169291908390036105ba5761013160e4354211156114ea565b6001600160a01b03918216911661014a82821415611657565b811515806105b1575b61015c906116a3565b6000948286526005602052604086208287526020526040808720549684815260066020528181208482526020522054908615806105a9575b156105005794955b6040516323b872dd60e01b8152336004820152306024820152604481018790526020816064816000895af180156104d5576101df916000916104e1575b506116ef565b6040516323b872dd60e01b8152336004820152306024820152604481018890526020816064816000885af180156104d557610222916000916104a6575b5061173b565b836000526005602052604060002083600052602052604060002061024787825461160a565b9055836000526006602052604060002083600052602052604060002061026e88825461160a565b90558360005260076020526040600020836000526020526040600020541560001461043a57505061029f8585611624565b6000600382111561042c5750808060011c6001810180911161041657905b8282106103f75750505b915b6102d4831515611540565b80600052600760205260406000208260005260205260406000206102f984825461160a565b9055836000526008602052604060002081600052602052604060002082600052602052604060002061032c84825461160a565b905583156103e1576103dd936103448460025461160a565b600255600081815280602052604081208581540190557fddf252ad1be2c89b69c2b068fc378daa952ba7f163c4a11628f55a4df523b3ef6020604051878152a3604080518681526020810188905290810184905233907f43c967b388d3a4ccad3f7ab80167852e322e5a3fde9893f530252281b2ae8b7090606090a4604051938493846040919493926060820195825260208201520152565b0390f35b63ec442f0560e01b600052600060045260246000fd5b90915061040d826104088184611637565b61160a565b60011c906102bd565b634e487b7160e01b600052601160045260246000fd5b90156102c7575060016102c7565b61046a61048f9185600052600760205260406000208560005260205261046560406000205489611624565b611637565b9184600052600760205260406000208460005260205261046560406000205489611624565b8082101561049f57505b916102c9565b9050610499565b6104c8915060203d6020116104ce575b6104c081836114b2565b810190611597565b3861021c565b503d6104b6565b6040513d6000823e3d90fd5b6104fa915060203d6020116104ce576104c081836114b2565b386101d9565b61050e876104658484611624565b95808711158061059d575b156105265750949561019c565b9550610536826104658989611624565b9081111580610591575b1561054c57949561019c565b60405162461bcd60e51b815260206004820152601f60248201527f53696d706c65537761703a20494e53554646494349454e545f415f4f525f42006044820152606490fd5b50608435811015610540565b5060a435871015610519565b508115610194565b50801515610153565b600080fd5b346105ba5760403660031901126105ba576105d861143d565b6105e0611453565b6001600160a01b039182166000908152600160209081526040808320949093168252928352819020549051908152f35b346105ba5760e03660031901126105ba5761062961143d565b610631611453565b60a4359190604435906001600160a01b03841684036105ba5761065860c4354211156114ea565b6001600160a01b03928316921661067183821415611657565b82151580610a68575b610683906116a3565b82600052600560205260406000208160005260205260406000205492806000526006602052604060002082600052602052604060002054938160005260076020526040600020836000526020526040600020548415610a115733600052600860205260406000208360005260205260406000208460005260205284604060002054106109be5761046561071d826104656107249589611624565b9686611624565b92606435851015806109b2575b61073a906115af565b816000526005602052604060002083600052602052604060002061075f868254611617565b90558160005260066020526040600020836000526020526040600020610786858254611617565b905581600052600760205260406000208360005260205260406000206107ad828254611617565b905533600052600860205260406000208260005260205260406000208360005260205260406000206107e0828254611617565b9055331561099c57600095338752866020526040872054828110610981578290338952886020520360408820558160025403600255866040518381527fddf252ad1be2c89b69c2b068fc378daa952ba7f163c4a11628f55a4df523b3ef60203392a360405163a9059cbb60e01b81526001600160a01b0382166004820152602481018790526020816044818b885af18015610976576108be9261088d88926020948c9161095957506116ef565b60405163a9059cbb60e01b81526001600160a01b039091166004820152602481019190915291829081906044820190565b03818a885af190811561094e57906108de916040989161092f575061173b565b7fd765e08eef31c0983ecca03ecd166297ac485ecd5dd69e291c848f0a020333c18651806109203394888a846040919493926060820195825260208201520152565b0390a482519182526020820152f35b610948915060203d6020116104ce576104c081836114b2565b8861021c565b6040513d89823e3d90fd5b6109709150853d87116104ce576104c081836114b2565b8c6101d9565b6040513d8a823e3d90fd5b63391434e360e21b8852336004526024526044829052606487fd5b634b637e8f60e11b600052600060045260246000fd5b50608435841015610731565b60405162461bcd60e51b815260206004820152602560248201527f53696d706c65537761703a204e4f545f454e4f5547485f555345525f4c495155604482015264494449545960d81b6064820152608490fd5b60405162461bcd60e51b815260206004820152602960248201527f53696d706c65537761703a20494e53554646494349454e545f4c495155494449604482015268151657d0955493915160ba1b6064820152608490fd5b5080151561067a565b346105ba5760403660031901126105ba57610a8a61143d565b610a92611453565b6001600160a01b0391821660008181526005602090815260408083209590941680835294815283822054928252600681528382209482529390935291205481151580610b58575b15610b1357670de0b6b3a7640000810290808204670de0b6b3a7640000149015171561041657602091610b0b91611637565b604051908152f35b60405162461bcd60e51b815260206004820152601860248201527f53696d706c65537761703a204e4f5f4c495155494449545900000000000000006044820152606490fd5b50801515610ad9565b346105ba5760403660031901126105ba57610b87610b7d61143d565b602435903361181c565b602060405160018152f35b346105ba5760003660031901126105ba5760405160006004548060011c90600181168015610c8c575b602083108114610c7857828552908115610c545750600114610bf4575b6103dd83610be8818503826114b2565b60405191829182611469565b91905060046000527f8a35acfbc15ff81a39ae7d344fd709f28e8600b4aa8c65c6b64bfe7fe36bd19b916000905b808210610c3a57509091508101602001610be8610bd8565b919260018160209254838588010152019101909291610c22565b60ff191660208086019190915291151560051b84019091019150610be89050610bd8565b634e487b7160e01b84526022600452602484fd5b91607f1691610bbb565b346105ba5760403660031901126105ba57610caf61143d565b610cb7611453565b6001600160a01b039182166000908152600560209081526040808320949093168252928352819020549051908152f35b346105ba5760203660031901126105ba576001600160a01b03610d0861143d565b1660005260006020526020604060002054604051908152f35b346105ba5760603660031901126105ba57610d3a61143d565b610d42611453565b604435916001600160a01b03831683036105ba576001600160a01b039081166000908152600860209081526040808320948416835293815283822094909216815292815291819020549051908152f35b346105ba5760a03660031901126105ba5760443560043567ffffffffffffffff82116105ba57366023830112156105ba5781600401359067ffffffffffffffff82116105ba573660248360051b850101116105ba57606435926001600160a01b03841684036105ba57610e096084354211156114ea565b600283036110c65782156110b057610e236024820161152c565b92600110156110b0576044610e38910161152c565b6001600160a01b0392831660008181526005602090815260408083209685168084529682528083205484845260068352818420978452969091529020549094919390811515806110a7575b610e8c90611540565b6040516323b872dd60e01b81523360048201523060248201526044810185905260208160648160008b5af19081156104d557600091611088575b501561104357610edc602091610f7b9386611787565b8095610eec6024358310156115af565b60008881526005845260408082206001600160a01b0384168352855290208054610f1790889061160a565b905560008881526006845260408082206001600160a01b0384168352855290208054610f44908490611617565b905560405163a9059cbb60e01b81526001600160a01b03958616600482015260248101929092529093169291829081906044820190565b03816000865af19081156104d557600091611024575b5015610fd4576040519384526020840152604083015260608201527f764f0dc063c06f32d89a3f3af80c0db4be8a090901f589a478b447e0a51f09f160803392a2005b60405162461bcd60e51b815260206004820152602260248201527f53696d706c65537761703a204f55545055545f5452414e534645525f4641494c604482015261115160f21b6064820152608490fd5b61103d915060203d6020116104ce576104c081836114b2565b85610f91565b60405162461bcd60e51b815260206004820152601b60248201527f53696d706c65537761703a205452414e534645525f4641494c454400000000006044820152606490fd5b6110a1915060203d6020116104ce576104c081836114b2565b87610ec6565b50801515610e83565b634e487b7160e01b600052603260045260246000fd5b60405162461bcd60e51b815260206004820152601860248201527f53696d706c65537761703a20494e56414c49445f5041544800000000000000006044820152606490fd5b346105ba5760403660031901126105ba5761112461143d565b61112c611453565b6001600160a01b039182166000908152600760209081526040808320949093168252928352819020549051908152f35b346105ba5760003660031901126105ba57602060405160128152f35b346105ba5760603660031901126105ba5761119161143d565b611199611453565b6001600160a01b03821660008181526001602081815260408084203385529091529091205491936044359392909181016111d9575b50610b87935061181c565b83811061124857841561123257331561121c57610b87946000526001602052604060002060018060a01b03331660005260205283604060002091039055846111ce565b634a1406b160e11b600052600060045260246000fd5b63e602df0560e01b600052600060045260246000fd5b8390637dc7a0d960e11b6000523360045260245260445260646000fd5b346105ba5760003660031901126105ba576020600254604051908152f35b346105ba5760403660031901126105ba5761129c61143d565b602435903315611232576001600160a01b031690811561121c57336000526001602052604060002082600052602052806040600020556040519081527f8c5be1e5ebec7d5bd14f71427d1e84f3dd0314c0f7b2291e5b200ac8c7c3b92560203392a3602060405160018152f35b346105ba5760003660031901126105ba5760405160006003548060011c906001811680156113be575b602083108114610c7857828552908115610c54575060011461135e576103dd83610be8818503826114b2565b91905060036000527fc2575a0e9e593c00f959f8c92f12db2869c3395a3b0502d05e2516446f71f85b916000905b8082106113a457509091508101602001610be8610bd8565b91926001816020925483858801015201910190929161138c565b91607f1691611332565b346105ba5760603660031901126105ba576020610b0b604435602435600435611787565b346105ba5760403660031901126105ba5761140561143d565b61140d611453565b6001600160a01b039182166000908152600660209081526040808320949093168252928352819020549051908152f35b600435906001600160a01b03821682036105ba57565b602435906001600160a01b03821682036105ba57565b91909160208152825180602083015260005b81811061149c575060409293506000838284010152601f8019910116010190565b806020809287010151604082860101520161147b565b90601f8019910116810190811067ffffffffffffffff8211176114d457604052565b634e487b7160e01b600052604160045260246000fd5b156114f157565b60405162461bcd60e51b815260206004820152601360248201527214da5b5c1b1954ddd85c0e8811561412549151606a1b6044820152606490fd5b356001600160a01b03811681036105ba5790565b1561154757565b60405162461bcd60e51b815260206004820152602260248201527f53696d706c65537761703a20494e53554646494349454e545f4c495155494449604482015261545960f01b6064820152608490fd5b908160209103126105ba575180151581036105ba5790565b156115b657565b60405162461bcd60e51b815260206004820152602660248201527f53696d706c65537761703a20494e53554646494349454e545f4f55545055545f604482015265105353d5539560d21b6064820152608490fd5b9190820180921161041657565b9190820391821161041657565b8181029291811591840414171561041657565b8115611641570490565b634e487b7160e01b600052601260045260246000fd5b1561165e57565b60405162461bcd60e51b815260206004820152601f60248201527f53696d706c65537761703a204944454e544943414c5f414444524553534553006044820152606490fd5b156116aa57565b60405162461bcd60e51b815260206004820152601860248201527f53696d706c65537761703a205a45524f5f4144445245535300000000000000006044820152606490fd5b156116f657565b60405162461bcd60e51b815260206004820152601d60248201527f53696d706c65537761703a205452414e534645525f415f4641494c45440000006044820152606490fd5b1561174257565b60405162461bcd60e51b815260206004820152601d60248201527f53696d706c65537761703a205452414e534645525f425f4641494c45440000006044820152606490fd5b9182156117c9576117bd926117b16117b792841515806117c0575b6117ab90611540565b82611624565b9261160a565b90611637565b90565b508015156117a2565b60405162461bcd60e51b815260206004820152602560248201527f53696d706c65537761703a20494e53554646494349454e545f494e5055545f416044820152641353d5539560da1b6064820152608490fd5b6001600160a01b031690811561099c576001600160a01b03169182156103e157600082815280602052604081205482811061189b5791604082827fddf252ad1be2c89b69c2b068fc378daa952ba7f163c4a11628f55a4df523b3ef958760209652828652038282205586815280845220818154019055604051908152a3565b916064928463391434e360e21b8452600452602452604452fdfea2646970667358221220fd72994949b454b33489a29fd060477689d1569afbec43226c33977bbfbedd3764736f6c634300081c0033",
  "devdoc": {
    "errors": {
      "ERC20InsufficientAllowance(address,uint256,uint256)": [
        {
          "details": "Indicates a failure with the `spender`s `allowance`. Used in transfers.",
          "params": {
            "allowance": "Amount of tokens a `spender` is allowed to operate with.",
            "needed": "Minimum amount required to perform a transfer.",
            "spender": "Address that may be allowed to operate on tokens without being their owner."
          }
        }
      ],
      "ERC20InsufficientBalance(address,uint256,uint256)": [
        {
          "details": "Indicates an error related to the current `balance` of a `sender`. Used in transfers.",
          "params": {
            "balance": "Current balance for the interacting account.",
            "needed": "Minimum amount required to perform a transfer.",
            "sender": "Address whose tokens are being transferred."
          }
        }
      ],
      "ERC20InvalidApprover(address)": [
        {
          "details": "Indicates a failure with the `approver` of a token to be approved. Used in approvals.",
          "params": {
            "approver": "Address initiating an approval operation."
          }
        }
      ],
      "ERC20InvalidReceiver(address)": [
        {
          "details": "Indicates a failure with the token `receiver`. Used in transfers.",
          "params": {
            "receiver": "Address to which tokens are being transferred."
          }
        }
      ],
      "ERC20InvalidSender(address)": [
        {
          "details": "Indicates a failure with the token `sender`. Used in transfers.",
          "params": {
            "sender": "Address whose tokens are being transferred."
          }
        }
      ],
      "ERC20InvalidSpender(address)": [
        {
          "details": "Indicates a failure with the `spender` to be approved. Used in approvals.",
          "params": {
            "spender": "Address that may be allowed to operate on tokens without being their owner."
          }
        }
      ]
    },
    "events": {
      "Approval(address,address,uint256)": {
        "details": "Emitted when the allowance of a `spender` for an `owner` is set by a call to {approve}. `value` is the new allowance."
      },
      "Transfer(address,address,uint256)": {
        "details": "Emitted when `value` tokens are moved from one account (`from`) to another (`to`). Note that `value` may be zero."
      }
    },
    "kind": "dev",
    "methods": {
      "addLiquidity(address,address,uint256,uint256,uint256,uint256,address,uint256)": {
        "params": {
          "amountADesired": "Desired amount of token A to add",
          "amountAMin": "Minimum amount of token A",
          "amountBDesired": "Desired amount of token B to add",
          "amountBMin": "Minimum amount of token B",
          "deadline": "Timestamp after which transaction reverts",
          "to": "Address to mint LP tokens to",
          "tokenA": "Address of token A",
          "tokenB": "Address of token B"
        },
        "returns": {
          "amountA": "Actual amount of token A added",
          "amountB": "Actual amount of token B added",
          "liquidity": "Amount of LP tokens minted"
        }
      },
      "allowance(address,address)": {
        "details": "See {IERC20-allowance}."
      },
      "approve(address,uint256)": {
        "details": "See {IERC20-approve}. NOTE: If `value` is the maximum `uint256`, the allowance is not updated on `transferFrom`. This is semantically equivalent to an infinite approval. Requirements: - `spender` cannot be the zero address."
      },
      "balanceOf(address)": {
        "details": "See {IERC20-balanceOf}."
      },
      "decimals()": {
        "details": "Returns the number of decimals used to get its user representation. For example, if `decimals` equals `2`, a balance of `505` tokens should be displayed to a user as `5.05` (`505 / 10 ** 2`). Tokens usually opt for a value of 18, imitating the relationship between Ether and Wei. This is the default value returned by this function, unless it's overridden. NOTE: This information is only used for _display_ purposes: it in no way affects any of the arithmetic of the contract, including {IERC20-balanceOf} and {IERC20-transfer}."
      },
      "getAmountOut(uint256,uint256,uint256)": {
        "params": {
          "amountIn": "Amount of input tokens",
          "reserveIn": "Reserve of input token",
          "reserveOut": "Reserve of output token"
        },
        "returns": {
          "amountOut": "Calculated amount out"
        }
      },
      "getPrice(address,address)": {
        "params": {
          "tokenA": "Token A address",
          "tokenB": "Token B address"
        },
        "returns": {
          "price": "Quoted price as tokenB/tokenA with 18 decimals"
        }
      },
      "name()": {
        "details": "Returns the name of the token."
      },
      "removeLiquidity(address,address,uint256,uint256,uint256,address,uint256)": {
        "params": {
          "amountAMin": "Minimum amount of token A to receive",
          "amountBMin": "Minimum amount of token B to receive",
          "deadline": "Timestamp after which transaction reverts",
          "liquidity": "Amount of LP tokens to burn",
          "to": "Address to receive tokens",
          "tokenA": "Address of token A",
          "tokenB": "Address of token B"
        },
        "returns": {
          "amountA": "Amount of token A returned",
          "amountB": "Amount of token B returned"
        }
      },
      "swapExactTokensForTokens(uint256,uint256,address[],address,uint256)": {
        "params": {
          "amountIn": "Amount of input tokens",
          "amountOutMin": "Minimum output tokens to receive",
          "deadline": "Timestamp after which transaction reverts",
          "path": "Array with [tokenIn, tokenOut]",
          "to": "Recipient address"
        }
      },
      "symbol()": {
        "details": "Returns the symbol of the token, usually a shorter version of the name."
      },
      "totalSupply()": {
        "details": "See {IERC20-totalSupply}."
      },
      "transfer(address,uint256)": {
        "details": "See {IERC20-transfer}. Requirements: - `to` cannot be the zero address. - the caller must have a balance of at least `value`."
      },
      "transferFrom(address,address,uint256)": {
        "details": "See {IERC20-transferFrom}. Emits an {Approval} event indicating the updated allowance. This is not required by the EIP. See the note at the beginning of {ERC20}. NOTE: Does not update the allowance if the current allowance is the maximum `uint256`. Requirements: - `from` and `to` cannot be the zero address. - `from` must have a balance of at least `value`. - the caller must have allowance for ``from``'s tokens of at least `value`."
      }
    },
    "title": "SimpleSwap",
    "version": 1
  },
  "userdoc": {
    "events": {
      "LiquidityAdded(address,address,address,uint256,uint256,uint256)": {
        "notice": "Emitted when liquidity is added to the pool"
      },
      "LiquidityRemoved(address,address,address,uint256,uint256,uint256)": {
        "notice": "Emitted when liquidity is removed from the pool"
      },
      "SwapExecuted(address,address,address,uint256,uint256)": {
        "notice": "Emitted when a token swap is successfully executed"
      }
    },
    "kind": "user",
    "methods": {
      "addLiquidity(address,address,uint256,uint256,uint256,uint256,address,uint256)": {
        "notice": "Adds liquidity to the pool and mints LP tokens"
      },
      "constructor": {
        "notice": "Initializes the contract with an LP token"
      },
      "getAmountOut(uint256,uint256,uint256)": {
        "notice": "Returns estimated amountOut for a given input and reserves"
      },
      "getPrice(address,address)": {
        "notice": "Returns price ratio (tokenB/tokenA)"
      },
      "removeLiquidity(address,address,uint256,uint256,uint256,address,uint256)": {
        "notice": "Removes liquidity from the pool and burns LP tokens"
      },
      "reservesA(address,address)": {
        "notice": "Maps token pairs to their respective reserves (tokenA perspective)"
      },
      "reservesB(address,address)": {
        "notice": "Maps token pairs to their respective reserves (tokenB perspective)"
      },
      "swapExactTokensForTokens(uint256,uint256,address[],address,uint256)": {
        "notice": "Swaps exact tokens for tokens via a direct path"
      },
      "totalLiquidity(address,address)": {
        "notice": "Tracks total liquidity provided for a token pair"
      },
      "userLiquidity(address,address,address)": {
        "notice": "Tracks user-specific liquidity provision for a token pair"
      }
    },
    "notice": "A minimal decentralized exchange contract supporting ERC20 token swaps and liquidity provision.",
    "version": 1
  },
  "storageLayout": {
    "storage": [
      {
        "astId": 159,
        "contract": "contracts/SimpleSwap.sol:SimpleSwap",
        "label": "_balances",
        "offset": 0,
        "slot": "0",
        "type": "t_mapping(t_address,t_uint256)"
      },
      {
        "astId": 165,
        "contract": "contracts/SimpleSwap.sol:SimpleSwap",
        "label": "_allowances",
        "offset": 0,
        "slot": "1",
        "type": "t_mapping(t_address,t_mapping(t_address,t_uint256))"
      },
      {
        "astId": 167,
        "contract": "contracts/SimpleSwap.sol:SimpleSwap",
        "label": "_totalSupply",
        "offset": 0,
        "slot": "2",
        "type": "t_uint256"
      },
      {
        "astId": 169,
        "contract": "contracts/SimpleSwap.sol:SimpleSwap",
        "label": "_name",
        "offset": 0,
        "slot": "3",
        "type": "t_string_storage"
      },
      {
        "astId": 171,
        "contract": "contracts/SimpleSwap.sol:SimpleSwap",
        "label": "_symbol",
        "offset": 0,
        "slot": "4",
        "type": "t_string_storage"
      },
      {
        "astId": 803,
        "contract": "contracts/SimpleSwap.sol:SimpleSwap",
        "label": "reservesA",
        "offset": 0,
        "slot": "5",
        "type": "t_mapping(t_address,t_mapping(t_address,t_uint256))"
      },
      {
        "astId": 810,
        "contract": "contracts/SimpleSwap.sol:SimpleSwap",
        "label": "reservesB",
        "offset": 0,
        "slot": "6",
        "type": "t_mapping(t_address,t_mapping(t_address,t_uint256))"
      },
      {
        "astId": 817,
        "contract": "contracts/SimpleSwap.sol:SimpleSwap",
        "label": "totalLiquidity",
        "offset": 0,
        "slot": "7",
        "type": "t_mapping(t_address,t_mapping(t_address,t_uint256))"
      },
      {
        "astId": 826,
        "contract": "contracts/SimpleSwap.sol:SimpleSwap",
        "label": "userLiquidity",
        "offset": 0,
        "slot": "8",
        "type": "t_mapping(t_address,t_mapping(t_address,t_mapping(t_address,t_uint256)))"
      }
    ],
    "types": {
      "t_address": {
        "encoding": "inplace",
        "label": "address",
        "numberOfBytes": "20"
      },
      "t_mapping(t_address,t_mapping(t_address,t_mapping(t_address,t_uint256)))": {
        "encoding": "mapping",
        "key": "t_address",
        "label": "mapping(address => mapping(address => mapping(address => uint256)))",
        "numberOfBytes": "32",
        "value": "t_mapping(t_address,t_mapping(t_address,t_uint256))"
      },
      "t_mapping(t_address,t_mapping(t_address,t_uint256))": {
        "encoding": "mapping",
        "key": "t_address",
        "label": "mapping(address => mapping(address => uint256))",
        "numberOfBytes": "32",
        "value": "t_mapping(t_address,t_uint256)"
      },
      "t_mapping(t_address,t_uint256)": {
        "encoding": "mapping",
        "key": "t_address",
        "label": "mapping(address => uint256)",
        "numberOfBytes": "32",
        "value": "t_uint256"
      },
      "t_string_storage": {
        "encoding": "bytes",
        "label": "string",
        "numberOfBytes": "32"
      },
      "t_uint256": {
        "encoding": "inplace",
        "label": "uint256",
        "numberOfBytes": "32"
      }
    }
  }
}